:040000003DEF1AF0C6
:08000800046ED8CF05F0E0CF33
:1000100006F00001E9CF0CF0EACF07F0E1CF08F0DD
:10002000E2CF09F0D9CF0AF0DACF0BF0F3CF12F01C
:10003000F4CF13F0FACF14F0F5CF15F0F6CF16F099
:10004000F7CF17F000C00EF001C00FF002C010F0A3
:1000500003C011F09DA230EF00F09EB25DEF00F002
:100060009DAA36EF00F09EBA65EF00F00EC000F0DA
:100070000FC001F010C002F011C003F00CC0E9FF86
:1000800007C0EAFF078E08C0E1FF09C0E2FF0AC00F
:10009000D9FF0BC0DAFF12C0F3FF13C0F4FF14C086
:1000A000FAFF15C0F5FF16C0F6FF17C0F7FF0450A2
:1000B00006C0E0FF05C0D8FF100002012A2BD8B40B
:1000C0002B2B9E92000136EF00F09EBA01D06BD030
:1000D00020C2E4F20201E56BE66BE791E96BEA6BA3
:1000E0009EAAFED7AECFE8F2E52BE52D02D0E8C2FE
:1000F000E9F2E551020802E1E8C2EAF2E7B105D00F
:10010000E8511B0802E1E78126D0E7B104D0E851AD
:100110002B0801E120D0E7B107D0E8510D0803E03A
:10012000E8510A0801E118D0E65302E1020E202747
:10013000036A20511F0FE96E000E0320EA6EE8C229
:10014000EFFF202BE62BE79120511F5D04E1E66BCA
:10015000E4C220F201D0C4D79EAA04D09EAAFED742
:10016000AE50FAD7E65303E100011DD00201036A45
:10017000E4511F0FE96E000E0320EA6EE9512B08CF
:1001800005E1EA512B0802E1010E01D0000EEF6EED
:10019000010EE425036A1F0FE96E000E0320EA6ECC
:1001A000E6C2EFFF00019E9A36EF00F04750494249
:1001B0002D5553422056657273696F6E2025752E3A
:1001C000257525750000446F63756D656E746174E7
:1001D000696F6E3A2068747470733A2F2F67697470
:1001E0006875622E636F6D2F737465766531353176
:1001F000352F677069627573622D6669726D7761FC
:1002000072650000556E7265636F676E697A65642A
:1002100020636F6D6D616E642E00475049425F43ED
:100220004D445F47544C0000475049425F434D44A2
:100230005F5344430000475049425F434D445F478A
:1002400045540000475049425F434D445F4C4C4F7A
:100250000000475049425F434D445F44434C000017
:10026000475049425F434D445F47544C2028307803
:1002700025782900475049425F434D445F5344432A
:100280002028307825782900475049425F434D4463
:100290005F47455420283078257829004750494247
:1002A0005F434D445F4C4C4F20283078257829001F
:1002B000475049425F434D445F44434C20283078C7
:1002C00025782900475049425F434D445F535045CC
:1002D0002028307825782900475049425F434D4413
:1002E0005F535044202830782578290047504942F0
:1002F0005F434D445F554E4C2028307825782900C7
:10030000475049425F434D445F554E542028307852
:1003100025782900475049425F434F4D4D414E4497
:1003200020283078257829004572726F723A204370
:10033000616E6E6F742073656E642049464320734E
:10034000657175656E6365207768696C65206E6F91
:100350007420696E20636F6E74726F6C6C657220AE
:100360006D6F64652E004572726F723A2044657637
:100370006963652061646472657373206F757420AE
:100380006F662072616E67652028504144203D20D1
:100390002575292E00004572726F723A20446576E9
:1003A0006963652061646472657373206F7574207E
:1003B0006F662072616E67652028534144203D209E
:1003C0002575292E00004572726F723A2054727999
:1003D000696E6720746F2073656E642047504942D0
:1003E00020636F6D6D616E64207768696C65206E47
:1003F0006F7420696E20636F6E74726F6C6C6572BF
:10040000206D6F64652E00004572726F723A204E47
:1004100052464420616E64204E444143206C696E14
:10042000657320626F746820686967682E0054697C
:100430006D656F75743A2057616974696E672066DF
:100440006F72204E52464420746F20676F20686997
:10045000676820647572696E672073656E642E002C
:1004600054696D656F75743A2057616974696E6778
:1004700020666F72204E44414320746F20676F20C6
:100480006869676820647572696E672073656E6459
:100490002E004572726F723A20446576696365205A
:1004A00061646472657373206F7574206F66207267
:1004B000616E67652028504144203D202575292E16
:1004C00000004572726F723A204465766963652058
:1004D00061646472657373206F7574206F66207237
:1004E000616E67652028534144203D202575292EE3
:1004F000000054696D656F75743A205761697469BD
:100500006E6720666F722044415620746F20676FBB
:10051000206C6F7720647572696E67207265636501
:100520006976652E000054696D656F75743A2057C1
:10053000616974696E6720666F7220444156207449
:100540006F20676F206869676820647572696E67DD
:1005500020726563656976652E000201CF6BA10E7E
:10056000D06FF2CFD1F2F29ECFC2A9FFA69CA69E79
:10057000A680A850D1BFF28ED05D16E0F250006E7A
:10058000F29ECFC2A9FFD0C2A8FFA69CA69EA684B9
:100590000F01550EA76EAA0EA76EA682A6B2FED7B1
:1005A000A6940050F2120201010ECF6F22C2D0F2C7
:1005B000F2CFD1F2F29ECFC2A9FFA69CA69EA68042
:1005C000A850D1BFF28ED05D16E0F250006EF29EC0
:1005D000CFC2A9FFD0C2A8FFA69CA69EA6840F01E9
:1005E000550EA76EAA0EA76EA682A6B2FED7A69437
:1005F0000050F2120201020ECF6F23C2D0F2F2CFEE
:10060000D1F2F29ECFC2A9FFA69CA69EA680A850BA
:10061000D1BFF28ED05D16E0F250006EF29ECFC2D6
:10062000A9FFD0C2A8FFA69CA69EA6840F01550EC6
:10063000A76EAA0EA76EA682A6B2FED7A6940050F9
:10064000F2120201030ECF6F24C2D0F2F2CFD1F228
:10065000F29ECFC2A9FFA69CA69EA680A850D1BF9D
:10066000F28ED05D16E0F250006EF29ECFC2A9FF6E
:10067000D0C2A8FFA69CA69EA6840F01550EA76E09
:10068000AA0EA76EA682A6B2FED7A6940050F212BA
:100690000201000E21B3010ECE6F040ECF6FCEC249
:1006A000D0F2F2CFD1F2F29ECFC2A9FFA69CA69EB5
:1006B000A680A850D1BFF28ED05D16E0F250006E39
:1006C000F29ECFC2A9FFD0C2A8FFA69CA69EA68478
:1006D0000F01550EA76EAA0EA76EA682A6B2FED770
:1006E000A6940050F2120201000E21B5010ECE6F49
:1006F000050ECF6FCEC2D0F2F2CFD1F2F29ECFC2B2
:10070000A9FFA69CA69EA680A850D1BFF28ED05D60
:1007100016E0F250006EF29ECFC2A9FFD0C2A8FF31
:10072000A69CA69EA6840F01550EA76EAA0EA76EC4
:10073000A682A6B2FED7A6940050F2120201000EC5
:1007400021B7010ECE6F060ECF6FCEC2D0F2F2CF20
:10075000D1F2F29ECFC2A9FFA69CA69EA680A85069
:10076000D1BFF28ED05D16E0F250006EF29ECFC285
:10077000A9FFD0C2A8FFA69CA69EA6840F01550E75
:10078000A76EAA0EA76EA682A6B2FED7A6940050A8
:10079000F2120201070ECF6F25C2D0F2F2CFD1F2D2
:1007A000F29ECFC2A9FFA69CA69EA680A850D1BF4C
:1007B000F28ED05D16E0F250006EF29ECFC2A9FF1D
:1007C000D0C2A8FFA69CA69EA6840F01550EA76EB8
:1007D000AA0EA76EA682A6B2FED7A6940050F21269
:1007E0000201000E21B9010ECE6F080ECF6FCEC2EE
:1007F000D0F2F2CFD1F2F29ECFC2A9FFA69CA69E64
:10080000A680A850D1BFF28ED05D16E0F250006EE7
:10081000F29ECFC2A9FFD0C2A8FFA69CA69EA68426
:100820000F01550EA76EAA0EA76EA682A6B2FED71E
:10083000A6940050F2120201090ECF6F26C2D0F228
:10084000F2CFD1F2F29ECFC2A9FFA69CA69EA680AF
:10085000A850D1BFF28ED05D16E0F250006EF29E2D
:10086000CFC2A9FFD0C2A8FFA69CA69EA6840F0156
:10087000550EA76EAA0EA76EA682A6B2FED7A694A4
:100880000050F212020128C2CEF20A0ECF6FCEC281
:10089000D0F2F2CFD1F2F29ECFC2A9FFA69CA69EC3
:1008A000A680A850D1BFF28ED05D16E0F250006E47
:1008B000F29ECFC2A9FFD0C2A8FFA69CA69EA68486
:1008C0000F01550EA76EAA0EA76EA682A6B2FED77E
:1008D000A6940050F212020129C2CEF20B0ECF6F85
:1008E000CEC2D0F2F2CFD1F2F29ECFC2A9FFA69C27
:1008F000A69EA680A850D1BFF28ED05D16E0F25021
:10090000006EF29ECFC2A9FFD0C2A8FFA69CA69EF1
:10091000A6840F01550EA76EAA0EA76EA682A6B2D8
:10092000FED7A6940050F212020100011200F2CF8D
:10093000B6F2F29EA96AA69CA69EA680A8500201C5
:10094000B6BFF28EA10804E0000107DE95D00201D7
:10095000F2CFB6F2F29E010EA96EA69CA69EA680CC
:10096000A850B6BFF28E226FF2CFB6F2F29E020E00
:10097000A96EA69CA69EA680A850B6BFF28E236F35
:10098000F2CFB6F2F29E030EA96EA69CA69EA6809A
:10099000A850B6BFF28E246FF2CFB6F2F29E040ECC
:1009A000A96EA69CA69EA680A850B6BFF28E016E28
:1009B000219301B02183F2CFB6F2F29E050EA96E0B
:1009C000A69CA69EA680A850B6BFF28E016E219569
:1009D00001B02185F2CFB6F2F29E060EA96EA69C5A
:1009E000A69EA680A850B6BFF28E016E219701B0D8
:1009F0002187F2CFB6F2F29E070EA96EA69CA69EA4
:100A0000A680A850B6BFF28E256FF2CFB6F2F29E46
:100A1000080EA96EA69CA69EA680A850B6BFF28E10
:100A2000016E219901B02189F2CFB6F2F29E090E32
:100A3000A96EA69CA69EA680A850B6BFF28E266F71
:100A4000F2CFB6F2F29E0B0EA96EA69CA69EA680D1
:100A5000A850B6BFF28EB76FF2CFB8F2F29E0A0E70
:100A6000A96EA69CA69EA680A850B8BFF28EB96FAC
:100A7000B7C229F2B9C228F20001E6EF1AF002016A
:100A8000CE2D1FD0959C8C9C959A8C8A959E8C8E91
:100A900095988C9893809382938493869388938A75
:100AA000938C938E92928982928096928D92969058
:100AB0008D80929489849286929A899A9298899844
:100AC0001BD0959C8C9C959A8C8A959E8C9E959813
:100AD0008C8893809382938493869388938A938C53
:100AE000938E92829290898096829680928492864A
:100AF000929A899A92988998000112000900F552F9
:100B00000DE0F6CFDFF2F7CFE0F2F5509EA8FED76A
:100B1000AD6EDFC2F6FFE0C2F7FFF0D71200020EA3
:100B2000EA6ECE0EE96EEF500EE0050E016E006A21
:100B3000002EFED7012EFBD7F90E006E002EFED739
:100B40000000EF2EF2D71200016603D0026602D039
:100B500007D0022A00C0EEFF012EFCD7022EFAD7E2
:100B6000CEEF05F0020120511F5D03E1000E016E82
:100B700078D0010E1F25036A1F0FE96E000E0320B7
:100B8000EA6E020EEF24B86FB7C2EAFFB6C2E9FF01
:100B9000006A010E026E016A0001D6D70201BC6B29
:100BA0001FC2BBF2B851BB27000EBC23BC510008CA
:100BB0003BE2FF0A03E1BB51000836E2000ED88099
:100BC0001F55B96FB85DBA6F036A1F511F0F016ED1
:100BD000000E032201C0BBF203C0BCF2B7C2EAFFA1
:100BE000B6C2E9FF03C0E2FF01C0E1FFB951016EE7
:100BF00004E0E6CFEEFF012EFCD7B951B625016E19
:100C0000000EB721036E01C0BBF2BC6FEA6E01C0DB
:100C1000E9FFE26A1F0EE16EBA51016E04E0E6CF11
:100C2000EEFF012EFCD719D0036A1F511F0F016E72
:100C3000000E032201C0BBF203C0BCF2B7C2EAFF40
:100C4000B6C2E9FF03C0E2FF01C0E1FFB851016E87
:100C500004E0E6CFEEFF012EFCD7B8511F27010EAE
:100C6000016E000127EF1BF0D5C2D7F2D4C2D6F235
:100C7000D7C203F00201D6C2E9FF03C0EAFFEF5278
:100C800006E0D62BD8B4D72B0001F2D70201D451FD
:100C9000D65D006ED551D759036E00C001F0026ECB
:100CA00000011200D1C2D5F2D0C2D4F2DDDF01C002
:100CB000D2F20201D25305E1D0C201F0D1C202F05A
:100CC00029D0D1C2D5F2D0C2D4F20001CDDF010EBD
:100CD0000201015CD36FD351D025E96E000ED12102
:100CE000EA6EEF50200809E0D351D025E96E000EDE
:100CF000D121EA6EEF50090809E1D351D025E96E00
:100D0000000ED121EA6EEF6AD307E5D7D0C201F019
:100D1000D1C202F00001C0EF0EF00201D25302E195
:100D2000D35344E0CFC203F0CEC2E9FF03C0EAFFD1
:100D3000EFCFD4F2D1C203F0D0C2E9FF03C0EAFF83
:100D4000EF50D45D17E0CFC203F0CEC2E9FF03C07D
:100D5000EAFFEFCFD4F2D1C203F0D0C2E9FF03C063
:100D6000EAFFEF50D45D02E2FF0E01D0010E016EEA
:100D70001FD00BD0CFC203F0CEC2E9FF03C0EAFF01
:100D8000EF5203E1000E016E13D0CFC203F0CE513B
:100D9000CE2BD8B4CF2BD1C203F0D051D02BD8B4A6
:100DA000D12BD251D8B4D307D207B8D7000E016ED9
:100DB000000112000201D651016AD55D03E2D5C2DD
:100DC00000F00CD0006A080ED76FD5370036D65128
:100DD000005CD8B0006E0136D72FF7D700011200A3
:100DE0000150D3C2D5F2640E0201D66F0001E2DFDA
:100DF00000C0D3F20150300E08E10201D4A30ED09E
:100E0000D4B70CD0D4B9200E04D00201D497D49911
:100E1000D481012601509EA8FED7AD6ED3C2D5F273
:100E20000A0ED66F0001C6DF00C0D3F20150300EAB
:100E300008E10201D4B70BD0D4A109D0D4B9200E57
:100E40000001012601509EA8FED7AD6E0201300EB2
:100E5000D327D3519EA8FED7AD6E00011200006AC1
:100E6000016A0201E251D890E3B10026003201325A
:100E7000E3B3002600320132E3B50026003201322E
:100E8000E3B7002600320132E3B900260032013216
:100E9000E3BB002600320132E3BD002600320132FE
:100EA000E3BF0026003201320001BFEF07F002016C
:100EB000E06BDE6B0A0EDF6FDD6BDB51DC1103E1F3
:100EC000000E016EBBD0E051E02BDB25E96E000E79
:100ED000DC21EA6EEFCFE1F2E1512D080CE1010EC9
:100EE000DE6FE051E02BDB25E96E000EDC21EA6EBF
:100EF000EFCFE1F20CD0E1512B0809E1E051E02BFA
:100F0000DB25E96E000EDC21EA6EEFCFE1F2E15164
:100F10002F08D8B08BD0E1513908D8A087D0E15143
:100F200030081EE1E051DB25E96E000EDC21EA6E9F
:100F3000EF50780809E0E051DB25E96E000EDC2176
:100F4000EA6EEF5058080CE1100EDF6FE02BE05115
:100F5000E02BDB25E96E000EDC21EA6EEFCFE1F23B
:100F6000DF510A081CE1E1512F0818E2E15139086C
:100F700015E30A0EE26FDDC2E3F2000170D7300E16
:100F80000201E15D0124DD6FE051E02BDB25E96E1C
:100F9000000EDC21EA6EEFCFE1F2E5D747D0DF515A
:100FA000100844E1E151600806E2E1517A0803E3E8
:100FB000E151DF0B01D0E151E16FE1512F0803E274
:100FC000E151390806E2E151400830E2E1514608BA
:100FD0002DE3E1512F080CE2E151390809E3DD3935
:100FE000E26FF00EE217300EE15DE225DD6F09D011
:100FF000DD39E26FF00EE217410EE15D0A0FE225E6
:10100000DD6FE051E02BDB25E96E000EDC21EA6E9E
:10101000EFCFE1F2E151600806E2E1517A0803E323
:10102000E151DF0B01D0E151E16FC7D7DE2D04D0D4
:10103000DF510A0801E1DD6DDDC201F0000112009F
:10104000DCC203F00201DBC2E9FF03C0EAFFDD51AD
:10105000EF5C12E0DCC203F0DBC2E9FF03C0EAFF91
:10106000EF5204E1000E016E026E0AD0DB2BD8B401
:10107000DC2B0001E5D70201DBC201F0DCC202F08B
:1010800000011200D3C203F00201D2C2E9FF03C083
:10109000EAFFEF6AD5C203F0D4C2E9FF03C0EAFF5A
:1010A000EF6AD7C203F0D6C2E9FF03C0EAFFEF6AD6
:1010B000D1C2D9F2D0C2D8F2D9C203F0D8C2E9FF66
:1010C00003C0EAFFEF50200804E1D82BD8B4D92B95
:1010D000F3D7D85306E1D95304E1000E016E026E36
:1010E00099D0D9C2DCF2D8C2DBF20001E0DE01C047
:1010F000DAF20201DA5303E0DA511E0804E2000ECC
:10110000016E026E87D0D3C203F0D2C2E9FF03C0E2
:10111000EAFFDAC2EFFFD9C2DCF2D8C2DBF2200E5E
:10112000DD6F00018DDF02C0D9F201C0D8F20201EB
:10113000D85306E1D95304E1000E016E026E6AD065
:10114000D9C203F0D8C2E9FF03C0EAFFEF5020087C
:1011500004E1D82BD8B4D92BF3D7D85306E1D9530F
:1011600004E1000E016E026E55D0D9C2DCF2D8C285
:10117000DBF200019CDE01C0DAF20201DA51000864
:1011800008E2DA511E0805E3D8C201F0D9C202F024
:1011900041D0DA515F0803E2DA517E0804E2000E22
:1011A000016E026E37D0D5C203F0D4C2E9FF03C08E
:1011B000EAFF600EDA5DEF6ED7C203F0D6C2E9FF38
:1011C00003C0EAFF010EEF6ED9C2DCF2D8C2DBF237
:1011D000200EDD6F000134DF02C0D9F201C0D8F269
:1011E0000201D85306E1D95304E1000E016E026EEC
:1011F00011D0D9C203F0D8C2E9FF03C0EAFFEF5013
:10120000200804E1D82BD8B4D92BF3D7D8C201F0E9
:10121000D9C202F0000112000900F6CFD4F2F7CFD4
:10122000D5F2F5509EA8FED7AD6ED4C2F6FFD5C25A
:10123000F7FF0201D32F01D002D00001EDD700014A
:1012400012000201DB5303E1000E016EADD0DC534E
:1012500015E0222D01D012D021A10DD0C60EF66EC0
:10126000030EF76E00014ADC020121A904D02651C9
:101270009EA8FED7AD6E010E016E96D0DC5301E044
:10128000DD6B928A9288222D07D0DC5303E0929284
:10129000899202D092928982959C8C8C92968986B2
:1012A00092948984DE6BDB51DE5DD8B07BD0040084
:1012B000928880A815D0928A80AA12D021A10DD040
:1012C000080EF66E040EF76E000118DC020121A96B
:1012D00004D026519EA8FED7AD6E010E016E64D0DB
:1012E000DE51D925E96E000EDA21EA6EEF50FF0AD1
:1012F000936A8A6E2B6B2A6B9D82928880B81DD070
:10130000040029512B5D18E303E128512A5D14E301
:101310009D9221A10ED02E0EF66E040EF76E0001E6
:101320007EEC05F0020121A904D026519EA8FED72B
:10133000AD6E010E016E38D0E0D79D92DD5306E010
:10134000010EDB5DDE5D02E19294899492968996AE
:101350002B6B2A6B9D82928A80BA1FD00400295180
:101360002B5D1AE303E128512A5D16E39D929296C4
:10137000898621A10ED0600EF66E040EF76E000174
:101380007EEC05F0020121A904D026519EA8FED7CB
:10139000AD6E010E016E08D0DED79D9292968986C1
:1013A000DE2B81D7000E016E000112000201CF5327
:1013B00003E0CF511E0823E221A11ED0660EF66E77
:1013C000030EF76E2A0ED36F000126DFCFC2D3F2D1
:1013D0001B0E0201D46F000103DD290E9EA8FED76B
:1013E000AD6E2E0E9EA8FED7AD6E020121A904D0CF
:1013F00026519EA8FED7AD6E010E016E9DD0D15331
:1014000026E0D0511E0823E221A11ED0960EF66ED2
:10141000030EF76E2A0ED36F0001FEDED0C2D3F2A8
:101420001B0E0201D46F0001DBDC290E9EA8FED743
:10143000AD6E2E0E9EA8FED7AD6E020121A904D07E
:1014400026519EA8FED7AD6E010E016E75D0D291C9
:10145000D2B117D0400ED76FD7C2D8F2020EDA6FD2
:10146000D80ED96F010EDB6FDC6FDD6B0001E9DE9A
:1014700001500152D8B402D0020103D00201D2912E
:1014800001D0D281D2B117D03F0ED76FD7C2D8F2D8
:10149000020EDA6FD80ED96F010EDB6FDC6FDD6BD9
:1014A0000001CFDE01500152D8B402D0020103D0B6
:1014B0000201D29101D0D281D2B11AD0200ECF2513
:1014C000D36FD3C2D7F2D7C2D8F2020EDA6FD80EDA
:1014D000D96F010EDB6FDC6FDD6B0001B2DE0150F6
:1014E0000152D8B402D0020103D00201D29101D03E
:1014F000D281D1531DE0D2B11AD0600ED025D36F66
:10150000D3C2D7F2D7C2D8F2020EDA6FD80ED96F93
:10151000010EDB6FDC6FDD6B000193DE01500152C9
:10152000D8B402D0020103D00201D29101D0D281FD
:10153000000ED2B1010E016E00011200EACFD6F208
:10154000E9CFD5F20201CF39F009D16FD127E20FEF
:10155000D26F320FD46FCF510F0BD227D227D4279F
:10156000E90FD36FD327D327CE390F0BD327D42737
:10157000D337D437D41FD437CE510F0BD427D1371C
:10158000070ED06F0A0ED307D427FDE3D207D32767
:10159000FDE3D107D227FDE3D007D127FDE3020EFB
:1015A000EA6ED00EE96E070ED515D59DE926000E20
:1015B000EA22E950D40804E1EA50020801E1D58D9D
:1015C000EF50006E08E1D5BD06D0D5B90CD0D5B727
:1015D00002D0200E03D0D587D599300E00260050BA
:1015E0009EA8FED7AD6EEE50D5ADE3D700010CEF4F
:1015F00013F00201D86BD66B0A0ED76FD56BD46B84
:10160000D36BD26BD051D11105E1006A016A026A35
:10161000036A25D1D851D82BD025E96E000ED121EF
:10162000EA6EEFCFD9F2D9512D080CE1010ED66F39
:10163000D851D82BD025E96E000ED121EA6EEFCF1C
:10164000D9F20CD0D9512B0809E1D851D82BD0258B
:10165000E96E000ED121EA6EEFCFD9F2D9512F08F1
:10166000D8B0E5D0D9513908D8A0E1D0D951300847
:101670001EE1D851D025E96E000ED121EA6EEF505F
:10168000780809E0D851D025E96E000ED121EA6E24
:10169000EF5058080CE1100ED76FD82BD851D82B2B
:1016A000D025E96E000ED121EA6EEFCFD9F2D751E5
:1016B0000A083FE1D9512F083BE2D951390838E3F4
:1016C000D890D235DB6FD335DC6FD435DD6FD535AF
:1016D000DE6FD235006ED335016ED435026ED5354E
:1016E000036E003601360236033600360136023606
:1016F0000336F80E00160050DB25D26F0150DC21B6
:10170000D36F0250DD21D46F0350DE21D56F300E30
:10171000D95DD227000ED323D423D523D851D82B7B
:10172000D025E96E000ED121EA6EEFCFD9F2C2D7F3
:101730007ED0D7511008D8A47AD0D951600806E2DB
:10174000D9517A0803E3D951DF0B01D0D951D96FB0
:10175000D9512F0803E2D951390806E2D95140087E
:1017600066E2D951460863E3D9512F0827E2D951DF
:10177000390824E3D235DB6FD335DC6FD435DD6F28
:10178000D535DE6FDB37DC37DD37DE37DB37DC378F
:10179000DD37DE37DB37DC37DD37DE37F00EDB17E2
:1017A000300ED95DDB25D26F000EDC21D36F000E29
:1017B000DD21D46F000EDE21D56F24D0D235DB6F52
:1017C000D335DC6FD435DD6FD535DE6FDB37DC37F5
:1017D000DD37DE37DB37DC37DD37DE37DB37DC376D
:1017E000DD37DE37F00EDB17410ED95D0A0FDB2542
:1017F000D26F000EDC21D36F000EDD21D46F000EFE
:10180000DE21D56FD851D82BD025E96E000ED1211D
:10181000EA6EEFCFD9F2D951600806E2D9517A08C1
:1018200003E3D951DF0B01D0D951D96F91D7D751EB
:101830000A080DE1D62D0BD0D21FD31FD41FD51F00
:10184000D22BD8B4D32BD8B4D42BD8B4D52BD2C266
:1018500000F0D3C201F0D4C202F0D5C203F00001FF
:101860002CEF13F00201CF5303E0CF511E0824E206
:1018700021A11FD0920EF66E040EF76E2A0ED36FC2
:101880000001CADCCFC2D3F21B0E0201D46F0001EB
:10189000F0EC06F0290E9EA8FED7AD6E2E0E9EA887
:1018A000FED7AD6E020121A904D026519EA8FED715
:1018B000AD6E010E016E9ED0D15327E0D0511E08AF
:1018C00024E221A11FD0C20EF66E040EF76E2A0E7E
:1018D000D36F0001A1DCD0C2D3F21B0E0201D46F82
:1018E0000001F0EC06F0290E9EA8FED7AD6E2E0E7C
:1018F0009EA8FED7AD6E020121A904D026519EA854
:10190000FED7AD6E010E016E75D0D291D2B117D057
:101910003F0ED76FD7C2D8F2020EDA6FD80ED96F4A
:10192000010EDB6FDC6FDD6B00018BDC01500152BF
:10193000D8B402D0020103D00201D29101D0D281E9
:10194000D2B117D0200ED76FD7C2D8F2020EDA6FFD
:10195000D80ED96F010EDB6FDC6FDD6B000171DC1F
:1019600001500152D8B402D0020103D00201D29139
:1019700001D0D281D2B11AD0400ECF25D36FD3C2BD
:10198000D7F2D7C2D8F2020EDA6FD80ED96F010E95
:10199000DB6FDC6FDD6B000154DC01500152D8B409
:1019A00002D0020103D00201D29101D0D281D153E1
:1019B0001DE0D2B11AD0600ED025D36FD3C2D7F2BA
:1019C000D7C2D8F2020EDA6FD80ED96F010EDB6FD4
:1019D000DC6FDD6B000135DC01500152D8B402D060
:1019E000020103D00201D29101D0D281000ED2B106
:1019F000010E016E00011200D9C203F00201D8C22B
:101A0000E9FF03C0EAFFEF6A938093829384938691
:101A10009388938A938C938E92869284222D02D0FF
:101A200092928982959C8C9C929A899A92988988A4
:101A30002B6B2A6B9D82928680A61FD004002951B1
:101A40002B5D1AE303E128512A5D16E39D929298DB
:101A5000899821A10ED0F20EF66E040EF76E0001E9
:101A60007EEC05F0020121A904D026519EA8FED7E4
:101A7000AD6E010E016E45D0DED79D929298899889
:101A8000D7C203F0D6C2E9FF03C0EAFF93688150D2
:101A9000FF0AEF6ED9C203F0D8C2E9FF03C0EAFF24
:101AA0009284000E80A4010EEF6E929A898A2B6BAD
:101AB0002A6B9D82928680B61FD0040029512B5D2F
:101AC0001AE303E128512A5D16E39D92929A899ABE
:101AD00021A10ED0260EF66E050EF76E00017EECEB
:101AE00005F0020121A904D026519EA8FED7AD6EB3
:101AF000010E016E06D0DED79D92929A899A000E51
:101B0000016E000112009EA8FED7AD6E1200040007
:101B1000020E0201D76FD00ED66F020ED96FD10E12
:101B2000D86F000169DF0201D29101B0D281D2A148
:101B300001D01BD0D0510001E6DF020121A906D05F
:101B4000D12D04D026510001DEDF0201CE2D03D0BD
:101B5000D12D01D00AD0CE51020804E1CF51D05D81
:101B600001E103D00001D3D7020100011200D0C26D
:101B700003F00201CFC2E9FF03C0EAFFEF6AD4918C
:101B8000D4B118D03F0ED76FD7C2D8F2020EDA6F99
:101B9000D80ED96F010EDB6FDC6FDD6B000121EC1D
:101BA00009F001500152D8B402D0020103D0020161
:101BB000D49101D0D481D4B118D0200ED76FD7C220
:101BC000D8F2020EDA6FD80ED96F010EDB6FDC6F20
:101BD000DD6B000121EC09F001500152D8B402D0B4
:101BE000020103D00201D49101D0D481D4B118D024
:101BF000180ED76FD7C2D8F2020EDA6FD80ED96F8F
:101C0000010EDB6FDC6FDD6B000121EC09F0015090
:101C10000152D8B402D0020103D00201D49101D004
:101C2000D481D4B11BD0400ED125D66FD6C2D7F205
:101C3000D7C2D8F2020EDA6FD80ED96F010EDB6F61
:101C4000DC6FDD6B000121EC09F001500152D8B4CA
:101C500002D0020103D00201D49101D0D481D35328
:101C60001EE0D4B11BD0600ED225D66FD6C2D7F2FB
:101C7000D7C2D8F2020EDA6FD80ED96F010EDB6F21
:101C8000DC6FDD6B000121EC09F001500152D8B48A
:101C900002D0020103D00201D49101D0D481D4B189
:101CA00012D0D0C2D7F2CFC2D6F2020ED96FD50E63
:101CB000D86F0001A1DE0152D8B402D0020103D0D6
:101CC0000201D49101D0D481D4B118D0190ED76FAC
:101CD000D7C2D8F2020EDA6FD80ED96F010EDB6FC1
:101CE000DC6FDD6B000121EC09F001500152D8B42A
:101CF00002D0020103D00201D49101D0D481D4B129
:101D000018D05F0ED76FD7C2D8F2020EDA6FD80E96
:101D1000D96F010EDB6FDC6FDD6B000121EC09F088
:101D200001500152D8B402D0020103D00201D49173
:101D300001D0D481000ED4B1010E016E0001120059
:101D40000201B6C2E9FFB7C2EAFFEF5208E0010E96
:101D5000B625E96E000EB721EA6EEF5202E1E3EF1D
:101D600016F0020EB625016E000EB721036E01C0FB
:101D7000CEF2CF6FD16F01C0D0F2000152EF06F06A
:101D800002C0B9F201C0B8F2B9C2CFF2B8C2CEF205
:101D9000020E0201D16F300ED06FD36B040ED26FE2
:101DA00000018DEC06F00152D8A471D0040E02019E
:101DB000B825016E000EB921036E01C0E9FFEA6E7D
:101DC000EF522FE121A31ED0600E2425CE6F23C237
:101DD000D3F21B0ED46F0001F0EC06F0200E9EA88B
:101DE000FED7AD6ECEC2D3F21B0E0201D46F00013E
:101DF000F0EC06F0020121A904D026519EA8FED7DE
:101E0000AD6E0ED023C2D3F21B0ED46F0001F0ECE6
:101E100006F0020121A904D026519EA8FED7AD6E7E
:101E200034D0040EB825016E000EB921036E01C036
:101E3000E9FFEA6EEF50200828E1050EB825CE6FC5
:101E4000000EB921CF6FD16FCEC2D0F2020ED36F88
:101E5000BA0ED26F020ED56FBB0ED46F020ED76FC3
:101E6000BC0ED66F000142EC08F00201BA530DE03F
:101E7000BAC223F2BBC224F22193BCB1218321ADAB
:101E800004D00001ADEC02F00201E3EF16F0020114
:101E9000222D5BD0B9C2CFF2B8C2CEF2020ED16F02
:101EA000350ED06FD36B040ED26F00018DEC06F0AF
:101EB0000152D8B402D0020148D0040E0201B82564
:101EC000016E000EB921036E01C0E9FFEA6EEF5208
:101ED00012E1000E21B5010ECE6FD36F1B0ED46F31
:101EE0000001F0EC06F0020121A904D026519EA8C1
:101EF000FED7AD6E28D0040EB825016E000EB921B4
:101F0000036E01C0E9FFEA6EEF5020081CE1219545
:101F1000050EB825CE6F000EB921CF6FDC6FCEC293
:101F2000DBF2000157EC07F001BE06D001500008BB
:101F300003E2020121850001020121AD04D000016C
:101F4000ADEC02F00201E3EF16F0222D49D0B9C248
:101F5000CFF2B8C2CEF2020ED16F3A0ED06FD36B71
:101F6000030ED26F00018DEC06F00152D8B402D0FE
:101F7000020136D00201BD91BDB114D0000E21B3D3
:101F8000010ECE6F23C2CFF224C2D0F2D16F000176
:101F9000D6EC09F00152D8B402D0020103D00201FC
:101FA000BD9101D0BD81BDB118D0040ED76FD7C28D
:101FB000D8F2020EDA6FD80ED96F010EDB6FDC6F2C
:101FC000DD6B000121EC09F001500152D8B402D0C0
:101FD000020103D00201BD9101D0BD81E3EF16F0F3
:101FE000B9C2CFF2B8C2CEF2020ED16F3E0ED06FA0
:101FF000D36B030ED26F00018DEC06F0015248E165
:10200000030E0201B825016E000EB921036E01C056
:10201000E9FFEA6EEF5212E1000E21B7010ECE6F1A
:10202000D36F1B0ED46F0001F0EC06F0020121A962
:1020300004D026519EA8FED7AD6E28D0030EB82539
:10204000016E000EB921036E01C0E9FFEA6EEF5088
:1020500020081CE12197040EB825CE6F000EB9218F
:10206000CF6FDC6FCEC2DBF2000157EC07F001BE90
:1020700006D00150000803E202012187000102019D
:1020800021AD04D00001ADEC02F00201E3EF16F047
:10209000B9C2CFF2B8C2CEF2020E0201D16F420E27
:1020A000D06FD36B030ED26F00018DEC06F001529E
:1020B00043E1030E0201B825016E000EB921036E43
:1020C00001C0E9FFEA6EEF520FE125C2D3F21B0E09
:1020D000D46F0001F0EC06F0020121A904D02651D2
:1020E0009EA8FED7AD6E26D0030EB825016E000E59
:1020F000B921036E01C0E9FFEA6EEF5020081AE132
:10210000040EB825CE6F000EB921CF6FDC6FCEC2A2
:10211000DBF2000157EC07F001C0BEF20201BE5134
:10212000030808E3BEC225F221AD04D00001ADECE6
:1021300002F00201E3EF16F0B9C2CFF2B8C2CEF25C
:10214000020E0201D16F460ED06FD36B0A0ED26F12
:1021500000018DEC06F0015248E10A0E0201B8259B
:10216000016E000EB921036E01C0E9FFEA6EEF5265
:1021700012E1000E21B9010ECE6FD36F1B0ED46F8A
:102180000001F0EC06F0020121A904D026519EA81E
:10219000FED7AD6E28D00A0EB825016E000EB9210B
:1021A000036E01C0E9FFEA6EEF5020081CE121999F
:1021B0000B0EB825CE6F000EB921CF6FDC6FCEC2EB
:1021C000DBF2000157EC07F001BE06D00150000819
:1021D00003E2020121890001020121AD04D00001C6
:1021E000ADEC02F00201E3EF16F0B9C2CFF2B8C2D3
:1021F000CEF2020E0201D16F510ED06FD36B080EDA
:10220000D26F00018DEC06F001523EE1080E020192
:10221000B825016E000EB921036E01C0E9FFEA6E18
:10222000EF520FE126C2D3F21B0ED46F0001F0EC87
:1022300006F0020121A904D026519EA8FED7AD6E5A
:1022400021D0080EB825016E000EB921036E01C021
:10225000E9FFEA6EEF50200815E1090EB825CE6FB0
:10226000000EB921CF6FDC6FCEC2DBF2000157EC5C
:1022700007F001C026F2020121AD04D00001ADEC4F
:1022800002F00201E3EF16F00201222D32D0B9C2B2
:10229000CFF2B8C2CEF2020ED16F5A0ED06FD36B0E
:1022A000030ED26F00018DEC06F00152D8B402D0BB
:1022B00002011FD00201222D01D011D021A10ED088
:1022C000280EF66E030EF76E00017EEC05F002019B
:1022D00021A904D026519EA8FED7AD6E08D09690B5
:1022E0008D90E60E006E002EFED796908D80E3EF67
:1022F00016F0222D49D0B9C2CFF2B8C2CEF2020EEA
:10230000D16F5E0ED06FD36B030ED26F00018DECD8
:1023100006F00152D8B402D0020136D00201BD93BA
:10232000BDB314D0000E21B3010ECE6F23C2CFF285
:1023300024C2D0F2D16F0001D6EC09F00152D8B41A
:1023400002D0020103D00201BD9301D0BD83BDB311
:1023500018D0110ED76FD7C2D8F2020EDA6FD80E8E
:10236000D96F010EDB6FDC6FDD6B000121EC09F032
:1023700001500152D8B402D0020103D00201BD9332
:1023800001D0BD83E3EF16F0222D49D0B9C2CFF2C0
:10239000B8C2CEF2020ED16F620ED06FD36B030EB5
:1023A000D26F00018DEC06F00152D8B402D00201C8
:1023B00036D00201BD95BDB514D0000E21B3010E7B
:1023C000CE6F23C2CFF224C2D0F2D16F0001D6EC7F
:1023D00009F00152D8B402D0020103D00201BD9528
:1023E00001D0BD85BDB518D0010ED76FD7C2D8F2C8
:1023F000020EDA6FD80ED96F010EDB6FDC6FDD6B6A
:10240000000121EC09F001500152D8B402D00201C0
:1024100003D00201BD9501D0BD85E3EF16F0225334
:1024200055E1B9C2CFF2B8C2CEF2020ED16F660E3C
:10243000D06FD36B030ED26F00018DEC06F001520A
:10244000D8B402D0020142D0030E0201B825016EB9
:10245000000EB921036E01C0E9FFEA6EEF5212E1EE
:10246000000E21BB010ECE6FD36F1B0ED46F000187
:10247000F0EC06F0020121A904D026519EA8FED757
:10248000AD6E20D0030EB825016E000EB921036E8B
:1024900001C0E9FFEA6EEF50200814E1219B040E11
:1024A000B825CE6F000EB921CF6FDC6FCEC2DBF244
:1024B000000157EC07F001BE06D00150000803E20E
:1024C0000201218B0001E3EF16F00201B9C2CFF245
:1024D000B8C2CEF2020ED16F6A0ED06FD36B040E6B
:1024E000D26F00018DEC06F00152D8A46FD0040E1B
:1024F0000201B825016E000EB921036E01C0E9FF8B
:10250000EA6EEF520FE122C2D3F21B0ED46F00012C
:10251000F0EC06F0020121A904D026519EA8FED7B6
:10252000AD6E52D0040EB825016E000EB921036EB7
:1025300001C0E9FFEA6EEF50200846E1050EB8251C
:10254000CE6F000EB921CF6FDC6FCEC2DBF200017F
:1025500057EC07F001C0BFF20201BF51225D34E029
:10256000BF51010831E3BFC222F222C2CEF2000104
:102570003FEC05F00201219B219F2F912F93276BA8
:10258000222D1CD0222D01D011D021A10ED0280E39
:10259000F66E030EF76E00017EEC05F0020121A934
:1025A00004D026519EA8FED7AD6E08D096908D908F
:1025B000E60E006E002EFED796908D8021AD04D0E1
:1025C0000001ADEC02F00201E3EF16F0B9C2CFF268
:1025D000B8C2CEF2020E0201D16F6F0ED06FD36B74
:1025E0000B0ED26F00018DEC06F0015255E10B0E7F
:1025F0000201B825016E000EB921036E01C0E9FF8A
:10260000EA6EEF5211E1100EE96E29C2CFF228C234
:10261000CEF200019EEF0AF0020121A904D026515A
:102620009EA8FED7AD6E36D00B0EB825016E000EFB
:10263000B921036E01C0E9FFEA6EEF5020082AE1DC
:102640000C0EB825CE6F000EB921CF6FD16FCEC260
:10265000D0F20001F9EF0AF003C0C3F202C0C2F2E7
:1026600001C0C1F200C0C0F20201C35313E1C25362
:1026700011E1C1510B080EE303E1C051B8080AE3B0
:10268000C1C229F2C0C228F221AD04D00001ADECD4
:1026900002F00201E3EF16F00201222DAFD0B9C221
:1026A000CFF2B8C2CEF2020ED16F7B0ED06FD36BD9
:1026B000040ED26F00018DEC06F00152D8B402D0A6
:1026C00002019CD0040E0201B825016E000EB92152
:1026D000036E01C0E9FFEA6EEF5216E1000E21B36E
:1026E000010ECE6F23C2CFF224C2D0F2D16F00010F
:1026F00032EC0CF0015206E10201CE6BCF6B00010F
:1027000087EC0DF079D00201040EB825016E000EA1
:10271000B921036E01C0E9FFEA6EEF5020083BE1EA
:10272000050EB825016E000EB921036E01C0E9FF48
:10273000EA6EEF5065082FE1060EB825016E000E17
:10274000B921036E01C0E9FFEA6EEF506F0823E183
:10275000070EB825016E000EB921036E01C0E9FF16
:10276000EA6EEF50690817E1000E21B3010ECE6F3B
:1027700023C2CFF224C2D0F2D16F000132EC0CF0B0
:10278000015207E1010E0201CE6FCF6B000187EC11
:102790000DF032D00201040EB825016E000EB921F1
:1027A000036E01C0E9FFEA6EEF50200826E1050E36
:1027B000B825CE6F000EB921CF6FDC6FCEC2DBF231
:1027C000000157EC07F001C0C4F2000E020121B372
:1027D000010ECE6F23C2CFF224C2D0F2D16F00011E
:1027E00032EC0CF0015208E1020E0201CE6FC4C2BD
:1027F000CFF2000187EC0DF00201E5D2B9C2CFF2B1
:10280000B8C2CEF2020ED16F800ED06FD36B030E22
:10281000D26F00018DEC06F0015208E1010E0201B9
:10282000CE6F00018FEC05F0FF00CDD2B9C2CFF220
:10283000B8C2CEF2020E0201D16F840ED06FD36BFC
:10284000070ED26F00018DEC06F0015247E1070E32
:102850000201B825016E000EB921036E01C0E9FF27
:10286000EA6EEF5212E1000E21BD010ECE6FD36F62
:102870001B0ED46F0001F0EC06F0020121A904D078
:1028800026519EA8FED7AD6E28D0070EB825016E42
:10289000000EB921036E01C0E9FFEA6EEF50200877
:1028A0001CE1219D080EB825CE6F000EB921CF6F17
:1028B000DC6FCEC2DBF2000157EC07F001BE06D0A0
:1028C0000150000803E20201218D0001020121AD47
:1028D00004D00001ADEC02F0020175D20201222DFC
:1028E0007BD0B9C2CFF2B8C2CEF2020ED16F8C0E3D
:1028F000D06FD36B050ED26F00018DEC06F0015244
:10290000D8B402D0020168D0050E0201B825016ECC
:10291000000EB921036E01C0E9FFEA6EEF521BE120
:10292000C56B000E21B3010ECE6F020ED06FC50E27
:10293000CF6F23C2D1F224C2D2F2CEC2D3F20001B1
:10294000B7EC0DF0015205E10201C551000183EC25
:102950000DF040D00201050EB825016E000EB92120
:10296000036E01C0E9FFEA6EEF50200834E1C96B45
:10297000060EB825CE6F000EB921CF6FD16FCEC233
:10298000D0F2020ED36FC60ED26F020ED56FC70EF5
:10299000D46F020ED76FC80ED66F000142EC08F05C
:1029A0000201C65318E0020ED06FC90ECF6FC6C227
:1029B000D1F2C7C2D2F2C8C2D3F20001B7EC0DF017
:1029C0000152D8B402D0020106D00201C95100015F
:1029D00083EC0DF00201F7D1222D27D0B9C2CFF23E
:1029E000B8C2CEF2020ED16F920ED06FD36B030E2F
:1029F000D26F00018DEC06F00152D8B402D0020172
:102A000014D09280000E80A0010E0201CE6FD36F11
:102A10001B0ED46F0001F0EC06F0020121A904D0D6
:102A200026519EA8FED7AD6ECED1225351E1B9C238
:102A3000CFF2B8C2CEF2020ED16F960ED06FD36B2A
:102A4000060ED26F00018DEC06F00152D8B402D010
:102A500002013ED0060E0201B825016E000EB9211A
:102A6000036E01C0E9FFEA6EEF520FE127C2D3F215
:102A70001B0ED46F0001F0EC06F0020121A904D076
:102A800026519EA8FED7AD6E22D0060EB825016E47
:102A9000000EB921036E01C0E9FFEA6EEF50200875
:102AA00016E1070EB825CE6F000EB921CF6FDC6F8F
:102AB000CEC2DBF2000157EC07F001C027F20201A1
:102AC00027AD03D09290899002D0929089807BD1DB
:102AD000222DBCD0B9C2CFF2B8C2CEF2020ED16F55
:102AE0009D0ED06FD36B030ED26F00018DEC06F0FC
:102AF0000152D8B402D00201A9D0030E0201B825B8
:102B0000016E000EB921036E01C0E9FFEA6EEF52BB
:102B100034E1BD97BDB714D0000E21B3010ECE6FC6
:102B200023C2CFF224C2D0F2D16F0001D6EC09F05B
:102B30000152D8B402D0020103D00201BD9701D0E6
:102B4000BD87BDB718D0080ED76FD7C2D8F2020E16
:102B5000DA6FD80ED96F010EDB6FDC6FDD6B000111
:102B600021EC09F001500152D8B402D0020103D087
:102B70000201BD9701D0BD8768D0030EB825016E54
:102B8000000EB921036E01C0E9FFEA6EEF50200884
:102B90005CE1BD99040EB827000EB923CD6BCD5171
:102BA0000E0853E30400B9C2D1F2B8C2D0F2020E4B
:102BB000D36FCA0ED26F020ED56FCB0ED46F020E3A
:102BC000D76FCC0ED66F000142EC08F002C0B9F20C
:102BD00001C0B8F20201CA5301E137D0BD99BDB9B5
:102BE00011D0CAC2CFF2CBC2D0F2CCC2D1F2000116
:102BF000D6EC09F00152D8B402D0020103D0020190
:102C0000BD9901D0BD89BDB918D0080ED76FD7C204
:102C1000D8F2020EDA6FD80ED96F010EDB6FDC6FBF
:102C2000DD6B000121EC09F001500152D8B402D053
:102C3000020103D00201BD9901D0BD89B85303E15F
:102C4000B95301E102D0CD2BAAD7BDD0B9C2CFF282
:102C5000B8C2CEF2020ED16FA10ED06FD36B030EAD
:102C6000D26F00018DEC06F001522CE1AC0EF66E35
:102C7000010EF76E110E0201D36F00010CEC09F08A
:102C8000060E0201D36F1B0ED46F0001F0EC06F0AC
:102C90002E0E9EA8FED7AD6E0201D36B1B0ED46F15
:102CA0000001F0EC06F00201D36B1B0ED46F0001A3
:102CB000F0EC06F0020121A904D026519EA8FED70F
:102CC000AD6E81D0B9C2CFF2B8C2CEF2020E02010F
:102CD000D16FA50ED06FD36B040ED26F00018DECB7
:102CE00006F001520EE1C60EF66E010EF76E7EEC96
:102CF00005F0020121A904D026519EA8FED7AD6E91
:102D000062D0B9C2CFF2B8C2CEF2020E0201D16FC8
:102D1000AA0ED06FD36B050ED26F00018DEC06F0BA
:102D2000015240E1050E0201B825016E000EB921E5
:102D3000036E01C0E9FFEA6EEF5212E1000E21B10D
:102D4000010ECE6FD36F1B0ED46F0001F0EC06F0B6
:102D5000020121A904D026519EA8FED7AD6E20D035
:102D6000050EB825016E000EB921036E01C0E9FF02
:102D7000EA6EEF50200814E12191060EB825CE6FBF
:102D8000000EB921CF6FDC6FCEC2DBF2000157EC31
:102D900007F001BE06D00150000803E202012181C4
:102DA000000111D0020121A10ED0040EF66E020E18
:102DB000F76E00017EEC05F0020121A904D0265136
:102DC0009EA8FED7AD6E000135EF1BF00201B9BF22
:102DD00010D00F0E006EB83900160A0E005C03E228
:102DE000300E002602D0B951002600509EA8FED712
:102DF000AD6E0F0EB8170A0EB85D02E2300E02D0AB
:102E0000B99FB951B827B8519EA8FED7AD6E000141
:102E100012000201219F2F912F939380938293841C
:102E200093869388938A938C938E92869284959CB2
:102E30008C9C929A899A92988988928280B253D176
:102E4000928680A601D059D1B66B020ED76FB60E0E
:102E5000D66F020ED96FB70ED86F0001FCEC0CF0E4
:102E6000015203E0020149D100010201B651010AF9
:102E7000000116E0050A31E00C0A4CE0190A67E08F
:102E8000050AD8B481D00C0AD8B49BD0010AD8B4B2
:102E9000B5D0260AD8B4CFD0600AD8B4E9D006D1CC
:102EA000600EF66E020EF76E100E0201D36F000177
:102EB0000CEC09F0B6C2B8F2570E0201B96F00016E
:102EC00085DF290E9EA8FED7AD6E020121A904D090
:102ED00026519EA8FED7AD6E05D1740EF66E020E79
:102EE000F76E100E0201D36F00010CEC09F0B6C2B0
:102EF000B8F2570E0201B96F000168DF290E9EA8D3
:102F0000FED7AD6E020121A904D026519EA8FED79E
:102F1000AD6EE8D0880EF66E020EF76E100E02014E
:102F2000D36F00010CEC09F0B6C2B8F2570E0201E3
:102F3000B96F00014BDF290E9EA8FED7AD6E0201CE
:102F400021A904D026519EA8FED7AD6ECBD09C0EF1
:102F5000F66E020EF76E100E0201D36F00010CEC3C
:102F600009F0B6C2B8F2570E0201B96F00012EDFA8
:102F7000290E9EA8FED7AD6E020121A904D02651CC
:102F80009EA8FED7AD6EAED0B00EF66E020EF76EF6
:102F9000100E0201D36F00010CEC09F0B6C2B8F2BA
:102FA000570E0201B96F000111DF290E9EA8FED74E
:102FB000AD6E020121A904D026519EA8FED7AD6EA8
:102FC00091D0C40EF66E020EF76E100E0201D36F92
:102FD00000010CEC09F0B6C2B8F2570E0201B96F4D
:102FE0000001F4DE290E9EA8FED7AD6E020121A9D4
:102FF00004D026519EA8FED7AD6E74D0D80EF66EC2
:10300000020EF76E100E0201D36F00010CEC09F0F6
:10301000B6C2B8F2570E0201B96F0001D7DE290E11
:103020009EA8FED7AD6E020121A904D026519EA80C
:10303000FED7AD6E57D0EC0EF66E020EF76E100E88
:103040000201D36F00010CEC09F0B6C2B8F2570EC2
:103050000201B96F0001BADE290E9EA8FED7AD6E3F
:10306000020121A904D026519EA8FED7AD6E3AD008
:10307000000EF66E030EF76E100E0201D36F000104
:103080000CEC09F0B6C2B8F2570E0201B96F00019C
:103090009DDE290E9EA8FED7AD6E020121A904D0A7
:1030A00026519EA8FED7AD6E1DD00001140EF66EFF
:1030B000030EF76E100E0201D36F00010CEC09F045
:1030C000B6C2B8F2570E0201B96F00017FDE290EB9
:1030D0009EA8FED7AD6E020121A904D026519EA85C
:1030E000FED7AD6E0AD0928680B607D0010ECE6FA5
:1030F000CF6B000187EC0DF0020100011CEF1DF009
:10310000968084B007D00201219F2F912F93276BC7
:10311000B1D10001928280B2BFD093809382938418
:1031200093869388938A938C938E92869284959CAF
:103130008C9C929A899A92988988928680A603D0CC
:10314000020198D100010201B66B020ED76FB60ED4
:10315000D66F020ED96FB70ED86F0001FCEC0CF0E1
:10316000015203E0020186D100010201B62D11D007
:103170002FA10FD01A0EF66E020EF76E00017EEC34
:1031800005F0020121A904D026519EA8FED7AD6EFC
:1031900081D0B651040815E12FA113D0280EF66E88
:1031A000020EF76E00017EEC05F0020121A904D0A9
:1031B00026519EA8FED7AD6E219F2F912F93276B8E
:1031C00069D0B651080811E12FA10FD0360EF66E66
:1031D000020EF76E00017EEC05F0020121A904D079
:1031E00026519EA8FED7AD6E55D0B651110811E1FB
:1031F0002FA10FD0440EF66E020EF76E00017EEC8A
:1032000005F0020121A904D026519EA8FED7AD6E7B
:1032100041D0B651140813E1520EF66E020EF76E4D
:1032200000017EEC05F0020121A904D026519EA8E0
:10323000FED7AD6E219F2F912F93276B2BD0B651C8
:10324000180802E12F8326D0B651190802E12F9306
:1032500021D0B651E00B200807E1B6511F0B235DCA
:1032600002E1219F2F8116D0B651E00B400809E101
:10327000B6511F0B235D03E1218F2F9101D0219FB8
:1032800009D0B6513F0802E12F9104D0B6515F0832
:1032900001E1219FEFD00001020121AF08D0928A05
:1032A0009288959C8C8C92968986929489842FA181
:1032B00010D093809382938493869388938A938C7F
:1032C000938E92869284959C8C9C929A899A9298DD
:1032D000898821AFC3D02FA3C1D0020EB96F270EAA
:1032E000B86F010EBA6FBB6BBC912551000A00018B
:1032F00008E0010A35E0030A62E0010AD8B48ED082
:103300008DD00201BCB113D0B9C2DAF2B8C2D9F281
:10331000BAC2DBF2DC6BDD6B000121EC09F001527B
:10332000D8B402D0020103D00201BC9101D0BC810B
:10333000BCB114D0020EDA6F2C0ED96F020EDB6F07
:10334000DC6BBBC2DDF2000121EC09F00152D8B404
:1033500002D0020103D00201BC9101D0BC8176D021
:103360000201BCB113D0B9C2DAF2B8C2D9F2BAC202
:10337000DBF2DC6BDD6B000121EC09F00152D8B40B
:1033800002D0020103D00201BC9101D0BC81BCB1CA
:1033900014D0020EDA6F2C0ED96F010EDB6FDC6BCE
:1033A000BBC2DDF2000121EC09F00152D8B402D019
:1033B000020103D00201BC9101D0BC8147D00201BF
:1033C000BCB113D0B9C2DAF2B8C2D9F2BAC2DBF2D8
:1033D000DC6BDD6B000121EC09F00152D8B402D0A6
:1033E000020103D00201BC9101D0BC81BCB114D058
:1033F000020EDA6F2D0ED96F010EDB6FDC6BBBC2D4
:10340000DDF2000121EC09F00152D8B402D0020132
:1034100003D00201BC9101D0BC8118D00201BCB123
:1034200014D0B9C2DAF2B8C2D9F2BAC2DBF2DC6B9C
:10343000BBC2DDF2000121EC09F00152D8B402D088
:10344000020103D00201BC9101D0BC81000EBCB1CD
:10345000010E016E276B929089802F932FA10AD0C5
:10346000928680B607D0010ECE6FCF6B000187EC3D
:103470000DF0020100011CEF1DF0F86AD09E078ECE
:10348000B886090EAF6E000EB06EA60EAC6E900E32
:10349000AB6E0000000002011F6B206B2191010E3A
:1034A000226F236F246B219321852187256B21892E
:1034B0000A0E266F219B276B219D030E296FE80EB4
:1034C000286F2B6B2A6B219F2F912F93B16BB06BC1
:1034D000C150C00B0F09C16E070EB46E48D0020078
:1034E00019000003022C0D0A00800230616464722E
:1034F000006175746F00636C7200656F6900656FC1
:103500007300656F745F656E61626C6500656F74F2
:103510005F6368617200696663006C6C6F006C6F5A
:1035200063006C6F6E006D6F646500726561645F4F
:10353000746D6F5F6D730072656164007273740007
:10354000736176656366670073706F6C6C0073728D
:1035500071007374617475730074726700766572BC
:103560000068656C70006465627567000000000E9D
:10357000F86E340EF76EDE0EF66E0900F550006E32
:10358000000A13E00900F550016EE8BE05D00F0BEC
:10359000EA6E0900F5CFE9FF01BC090001AC0900A2
:1035A000F5CFEEFF004EE9D7F9D7F86A949A8B8AE7
:1035B000D180D76AD66A080E0609CA6E900ECB6E05
:1035C000C00EF2129D92000197EF04F022C2CEF2DB
:1035D0003FEC05F00201222D1CD0222D01D011D08C
:1035E00021A10ED0280EF66E030EF76E00017EECC0
:1035F00005F0020121A904D026519EA8FED7AD6E88
:1036000008D096908D90E60E006E002EFED7969014
:103610008D80949A8B9A0400640ECE6F00018FEC1B
:1036200005F0949A8B8A0400640E0201CE6F0001AB
:103630008FEC05F09D8A0400949A8B9A0400010E89
:103640000201B76F1F0EB66F0001B2EF05F0015215
:10365000D8B4E4D101011F530AE0010E0201B76F93
:103660001F0EB66F0001A0EF0EF0D8D1010120C1EE
:10367000B2F2010E0201B46F210EB36F222D04D1FC
:10368000B591B5B114D0000E21B3010EB66F23C2AF
:10369000CFF224C2D0F2D16F0001D6EC09F0015272
:1036A000D8B402D0020103D00201B59101D0B58196
:1036B000B5B1C6D0000E21B7010EB66FB4C2B9F2D3
:1036C000B3C2B8F2B2C2BAF2B6C2BBF2BC912551D3
:1036D000000A000108E0010A35E0030A62E0010A7D
:1036E000D8B48ED08DD00201BCB113D0B9C2DAF2F9
:1036F000B8C2D9F2BAC2DBF2DC6BDD6B000121EC9F
:1037000009F00152D8B402D0020103D00201BC91E9
:1037100001D0BC81BCB114D0020EDA6F2C0ED96F6F
:10372000020EDB6FDC6BBBC2DDF2000121EC09F0A5
:103730000152D8B402D0020103D00201BC9101D0E1
:10374000BC8176D00201BCB113D0B9C2DAF2B8C2E2
:10375000D9F2BAC2DBF2DC6BDD6B000121EC09F0BF
:103760000152D8B402D0020103D00201BC9101D0B1
:10377000BC81BCB114D0020EDA6F2C0ED96F010ED1
:10378000DB6FDC6BBBC2DDF2000121EC09F0015202
:10379000D8B402D0020103D00201BC9101D0BC8197
:1037A00047D00201BCB113D0B9C2DAF2B8C2D9F223
:1037B000BAC2DBF2DC6BDD6B000121EC09F00152D7
:1037C000D8B402D0020103D00201BC9101D0BC8167
:1037D000BCB114D0020EDA6F2D0ED96F010EDB6F63
:1037E000DC6BBBC2DDF2000121EC09F00152D8B460
:1037F00002D0020103D00201BC9101D0BC8118D0DB
:103800000201BCB114D0B9C2DAF2B8C2D9F2BAC25C
:10381000DBF2DC6BBBC2DDF2000121EC09F00152EE
:10382000D8B402D0020103D00201BC9101D0BC8106
:10383000000EBCB1010E016E015202E1B59101D042
:10384000B58121A520D0B5B114D0000E21B3010E51
:10385000B66F23C2CFF224C2D0F2D16F000132EC96
:103860000CF00152D8B402D0020103D00201B5918C
:1038700001D0B581B5B107D0010ECE6FCF6B00017D
:1038800087EC0DF00201C9D021AFC7D02FB3C5D04E
:10389000928280A2C2D0000E21B7010EB66FB4C2D0
:1038A000B9F2B3C2B8F2B2C2BAF2B6C2BBF2BC91BC
:1038B0002551000A000108E0010A35E0030A62E030
:1038C000010AD8B48ED08DD00201BCB113D0B9C2D8
:1038D000DAF2B8C2D9F2BAC2DBF2DC6BDD6B0001FE
:1038E00021EC09F00152D8B402D0020103D0020148
:1038F000BC9101D0BC81BCB114D0020EDA6F2C0E89
:10390000D96F020EDB6FDC6BBBC2DDF2000121EC74
:1039100009F00152D8B402D0020103D00201BC91D7
:1039200001D0BC8176D00201BCB113D0B9C2DAF2A9
:10393000B8C2D9F2BAC2DBF2DC6BDD6B000121EC5C
:1039400009F00152D8B402D0020103D00201BC91A7
:1039500001D0BC81BCB114D0020EDA6F2C0ED96F2D
:10396000010EDB6FDC6BBBC2DDF2000121EC09F064
:103970000152D8B402D0020103D00201BC9101D09F
:10398000BC8147D00201BCB113D0B9C2DAF2B8C2CF
:10399000D9F2BAC2DBF2DC6BDD6B000121EC09F07D
:1039A0000152D8B402D0020103D00201BC9101D06F
:1039B000BC81BCB114D0020EDA6F2D0ED96F010E8E
:1039C000DB6FDC6BBBC2DDF2000121EC09F00152C0
:1039D000D8B402D0020103D00201BC9101D0BC8155
:1039E00018D00201BCB114D0B9C2DAF2B8C2D9F20F
:1039F000BAC2DBF2DC6BBBC2DDF2000121EC09F0E4
:103A00000152D8B402D0020103D00201BC9101D00E
:103A1000BC81000EBCB1010E016E000102012253F7
:103A20000CE121AB06D0000109EF17F0000104D032
:103A30000201000180EF18F002010001FFD5030030
:020000040030CA
:0E00000000C21E19008781000FC00FE00F40E4
:00000001FF
;PIC18F4520
;CRC=EBC2  CREATED="29-Apr-19 19:57"
